:100000000C9434000C9451000C9412030C94510085
:100010000C9451000C9451000C9451000C9451001C
:100020000C9451000C947F030C9451000C945100DB
:100030000C9451000C9451000C9451000C945100FC
:100040000C9451000C9451000C94C9040C94290593
:100050000C9451000C9451000C9451000C945100DC
:100060000C9451000C94510011241FBECFEFD8E026
:10007000DEBFCDBF11E0A0E0B1E0EEE5FEE002C0E2
:1000800005900D92A433B107D9F712E0A4E3B1E0D3
:1000900001C01D92A931B107E1F70E9453000C94F1
:1000A0002D070C940000DF93CF93CDB7DEB7C45675
:1000B000D0400FB6F894DEBF0FBECDBF0E94A000A7
:1000C00001C00000809118028270882371F004C082
:1000D0000E94FB020E9404060E9404038823C1F3CD
:1000E000809118028D7F809318028091180284708D
:1000F000882339F3CE01C3960E946C069E012D5CC5
:100100003F4FCE010196B9010E948702882311F466
:100110000E94AF00CE0101969E012D5C3F4F42E34D
:10012000F90100802F5F3F4FFC0100820196415092
:100130004423B1F7809118028B7F80931802C2CFBD
:10014000DF93CF93CDB7DEB71092180280E10E9403
:100150007B040E94B9027894CF91DF910895DF93D8
:10016000CF93CDB7DEB7C758D0400FB6F894DEBFF7
:100170000FBECDBFCE01029620E031E04CE0F90188
:1001800000802F5F3F4FFC010082019641504423C5
:10019000B1F7CE010E962CE031E04AE0F901008083
:1001A0002F5F3F4FFC010082019641504423B1F77D
:1001B000CE01489626E131E04AE0F90100802F5F48
:1001C0003F4FFC010082019641504423B1F7CE011C
:1001D000829620E231E04AE0F90100802F5F3F4F34
:1001E000FC010082019641504423B1F7CE018C9668
:1001F0002AE231E04AE0F90100802F5F3F4FFC0125
:100200000082019641504423B1F7CE01C6960E9468
:100210006C06198217C08981882F90E02981222FCE
:1002200030E0AE014E5F5F4F240F351FF901408172
:100230009E0128593F4F820F931FFC014083898103
:100240008F5F898389818C3030F3CE0188599F4F2D
:100250006CE00E94FC0400000E94BB048823E1F3D0
:10026000198217C08981882F90E02981222F30E0E0
:10027000AE01425F5F4F240F351FF90140819E019F
:1002800028593F4F820F931FFC01408389818F5F64
:10029000898389818A3030F3CE0188599F4F6AE083
:1002A0000E94FC0400000E94BB048823E1F3198231
:1002B00017C08981882F90E02981222F30E0AE017C
:1002C0004A5C5F4F240F351FF90140819E01285978
:1002D0003F4F820F931FFC01408389818F5F898389
:1002E00089818A3030F38981882F90E09E012859D6
:1002F0003F4F820F931F2AE0FC012083CE018859D3
:100300009F4F6BE00E94FC0400000E94BB04882306
:10031000E1F3198217C08981882F90E02981222F6B
:1003200030E0AE01485E5F4F240F351FF901408178
:100330009E0128593F4F820F931FFC014083898102
:100340008F5F898389818A3030F3CE0188599F4F2E
:100350006AE00E94FC0400000E94BB048823E1F3D1
:10036000CE01805C9F4FFC012081CE0188599F4FB8
:10037000FC012083CE0188599F4F2AE0FC01218394
:10038000CE0188599F4F62E00E94FC0400000E9449
:10039000BB048823E1F3198217C08981882F90E07C
:1003A0002981222F30E0AE014E5D5F4F240F351FB3
:1003B000F90140819E0128593F4F820F931FFC0194
:1003C000408389818F5F898389818A3030F3CE01B0
:1003D00088599F4F6AE00E94FC0400000E94BB0401
:1003E0008823E1F3198217C08981882F90E0298141
:1003F000222F30E0AE014F5B5F4F240F351FF90114
:1004000040819E0128593F4F820F931FFC0140837A
:1004100089818F5F89838981893030F38981882F31
:1004200090E09E0128593F4F820F931F2AE0FC0164
:100430002083CE0188599F4F6AE00E94FC0400008F
:100440000E94BB048823E1F3198217C08981882F99
:1004500090E02981222F30E0AE01445D5F4F240FF0
:10046000351FF90140819E0128593F4F820F931F8C
:10047000FC01408389818F5F898389818A3030F3D1
:10048000CE0188599F4F6AE00E94FC0400000E9440
:10049000BB048823E1F3198217C08981882F90E07B
:1004A0002981222F30E0AE01455B5F4F240F351FBD
:1004B000F90140819E0128593F4F820F931FFC0193
:1004C000408389818F5F89838981893030F3898175
:1004D000882F90E09E0128593F4F820F931F2AE0FA
:1004E000FC012083CE0188599F4F6AE00E94FC04E2
:1004F00000000E94BB048823E1F3C957DF4F0FB609
:10050000F894DEBF0FBECDBFCF91DF910895DF938A
:10051000CF9300D000D00F92CDB7DEB79B838A83F4
:100520007D836C83198219C08981882F90E02A818C
:100530003B81820F931FFC0140818981882F90E0CD
:100540002C813D81820F931FFC018081481711F09F
:1005500080E007C089818F5F898389818A3020F399
:1005600081E00F900F900F900F900F90CF91DF913F
:100570000895DF93CF93CDB7DEB78BE290E02BE207
:1005800030E0F90120812460FC0120838BE290E0BF
:100590002BE230E0F90120812860FC0120838AE20F
:1005A00090E02AE230E0F90120812460FC01208300
:1005B0008AE290E02AE230E0F9012081277FFC0105
:1005C000208389E690E029E630E0F9012081286067
:1005D000FC0120838DE390E02DE330E0F9012081E0
:1005E0002260FC012083809118028D7F8093180285
:1005F000CF91DF910895DF93CF93CDB7DEB70E94FF
:100600005804CF91DF910895DF93CF93CDB7DEB734
:100610008091B901882311F481E001C080E0CF917D
:10062000DF9108951F920F920FB60F9211242F930E
:100630003F934F935F936F937F938F939F93AF936A
:10064000BF93EF93FF93DF93CF93CDB7DEB7809146
:100650003401882371F481E0809334018DE390E0CC
:100660002DE330E0F90120812D7FFC0120830E94E1
:100670004C03CF91DF91FF91EF91BF91AF919F918B
:100680008F917F916F915F914F913F912F910F903B
:100690000FBE0F901F901895DF93CF93CDB7DEB7A5
:1006A00082EB90E02BECFC01208381EB90E023E0D7
:1006B000FC01208380E790E020E730E0F901208111
:1006C0002160FC012083CF91DF910895DF93CF93C8
:1006D000CDB7DEB781EB90E021EB30E0F90120816E
:1006E000287FFC01208380E790E020E730E0F901DB
:1006F00020812E7FFC012083CF91DF9108951F92EE
:100700000F920FB60F9211242F933F934F935F9345
:100710006F937F938F939F93AF93BF93EF93FF93C9
:10072000DF93CF930F92CDB7DEB782EB90E027E94E
:10073000FC01208380913401882F90E08130910565
:1007400079F08230910524F4009709F464C05FC009
:100750008230910569F08330910509F441C057C09A
:1007600082E080933401109235011092360156C018
:10077000198289E290E0FC018081882F90E08870E6
:100780009070009719F081E0898301C019828981F6
:10079000882F90E020913501222F30E0022E02C0F8
:1007A000880F991F0A94E2F7982F80913601890FDC
:1007B00080933601809135018F5F80933501809160
:1007C0003501883051F583E0809334018091360102
:1007D0000E943604809118028260809318021EC025
:1007E000109234010E9466038CE390E02CE330E029
:1007F000F90120812260FC0120838DE390E02DE34C
:1008000030E0F90120812260FC01208307C01092B2
:100810003401000003C0000001C000000F90CF9120
:10082000DF91FF91EF91BF91AF919F918F917F9158
:100830006F915F914F913F912F910F900FBE0F904D
:100840001F901895DF93CF9300D0CDB7DEB78A8382
:100850008A818F5F89838981803811F480E001C0AB
:1008600089810F900F90CF91DF910895DF93CF93FF
:100870000F92CDB7DEB789838091B9018823A4F0A8
:100880008091B701882F90E0895C9E4F2981FC01FF
:1008900020838091B9018F5F8093B9018091B70166
:1008A0000E9422048093B7010F90CF91DF910895A9
:1008B000DF93CF930F92CDB7DEB719828091B90144
:1008C0008823A1F08091B801882F90E0895C9E4F29
:1008D000FC01808189838091B8010E942204809369
:1008E000B8018091B90181508093B90189810F903D
:1008F000CF91DF910895DF93CF930F92CDB7DEB7FD
:10090000898380EC90E020EC30E0F90120812260C6
:10091000FC01208381EC90E021EC30E0F9012081A2
:100920002869FC01208384EC90E02981222F30E0AB
:10093000FC0131832083809118028E7F80931802FE
:100940000F90CF91DF910895DF93CF93CDB7DEB7AE
:100950000E949E05CF91DF910895DF93CF93CDB78D
:10096000DEB78091CC01882311F481E001C080E0E2
:10097000CF91DF910895DF93CF93CDB7DEB780910C
:10098000DF01882311F481E001C080E0CF91DF9185
:1009900008951F920F920FB60F9211242F933F9339
:1009A0004F935F936F937F938F939F93AF93BF9377
:1009B000EF93FF93DF93CF93CDB7DEB786EC90E054
:1009C000FC0180810E947C058091180281608093E7
:1009D0001802CF91DF91FF91EF91BF91AF919F915D
:1009E0008F917F916F915F914F913F912F910F90D8
:1009F0000FBE0F901F901895DF93CF9300D000D0BB
:100A0000CDB7DEB79B838A836C8319820EC0898140
:100A1000882F90E02A813B81820F931FFC01808107
:100A20000E94C10589818F5F898399818C81981784
:100A300070F381EC90E021EC30E0F901208120623C
:100A4000FC0120830F900F900F900F90CF91DF91BA
:100A500008951F920F920FB60F9211242F933F9378
:100A60004F935F936F937F938F939F93AF93BF93B6
:100A7000EF93FF93DF93CF930F92CDB7DEB70E9432
:100A8000E105898386EC90E02981FC012083809137
:100A9000DF01882349F481EC90E021EC30E0F9019A
:100AA00020812F7DFC0120830F90CF91DF91FF915A
:100AB000EF91BF91AF919F918F917F916F915F91D6
:100AC0004F913F912F910F900FBE0F901F9018954F
:100AD000DF93CF9300D0CDB7DEB78A838A818F5F53
:100AE00089838981803111F480E001C089810F9070
:100AF0000F90CF91DF910895DF93CF930F92CDB7F1
:100B0000DEB789838091CC018031A0F48091CA0145
:100B1000882F90E086549E4F2981FC01208380918C
:100B2000CC018F5F8093CC018091CA010E9468053F
:100B30008093CA010F90CF91DF910895DF93CF93F7
:100B40000F92CDB7DEB719828091CC018823A1F036
:100B50008091CB01882F90E086549E4FFC018081CC
:100B600089838091CB010E9468058093CB0180919D
:100B7000CC0181508093CC0189810F90CF91DF917E
:100B80000895DF93CF930F92CDB7DEB7898380911D
:100B9000DF018091DD01882F90E083539E4F2981F2
:100BA000FC0120838091DF018F5F8093DF018091C2
:100BB000DD010E9468058093DD010F90CF91DF91E8
:100BC0000895DF93CF930F92CDB7DEB7198280914E
:100BD000DF018823A1F08091DE01882F90E083530C
:100BE0009E4FFC01808189838091DE010E9468050F
:100BF0008093DE018091DF0181508093DF01898144
:100C00000F90CF91DF910895DF93CF930F92CDB7DF
:100C1000DEB789838981843211F41092E0018091DA
:100C2000E001882F90E08430910581F185309105B5
:100C300084F481309105D9F0823091051CF400973D
:100C400091F046C082309105B1F083309105B9F042
:100C50003FC08630910541F186309105F4F0873030
:100C6000910591F135C081E08093E00131C082E0CF
:100C70008093E0012DC083E08093E00129C084E0EF
:100C80008093E00189818093E10122C085E0809317
:100C9000E00189818093E2011BC086E08093E0013E
:100CA00089818093E30114C00E941707882341F0D3
:100CB00087E08093E0011092E4011092E50108C002
:100CC00088E08093E00104C089810E9487060000CB
:100CD0000F90CF91DF910895DF93CF9300D0CDB7E0
:100CE000DEB79A83898389819A8126EE31E042E3D7
:100CF000F90100802F5F3F4FFC01008201964150B7
:100D00004423B1F70F900F90CF91DF910895DF93B7
:100D1000CF930F92CDB7DEB7898389818C3241F4AE
:100D20001092E5018091E4018F5F8093E4017BC024
:100D30008091E401882F90E08430910509F43DC052
:100D40008530910584F48130910529F18230910537
:100D50001CF40097B1F062C08230910501F183303C
:100D6000910539F15BC086309105A9F18630910576
:100D700074F187309105C9F18830910509F43FC0BD
:100D80004DC08091E501882F90E08A519E4F2981C6
:100D9000FC01208343C089818093F0013FC0809192
:100DA000E501882F90E08F509E4F2981FC01208320
:100DB00035C089818093FA0131C08091E501882F87
:100DC00090E085509E4F2981FC01208327C08981B6
:100DD0008093040223C08091E501882F90E08B5F0F
:100DE0009D4F2981FC01208319C08091E501882F46
:100DF00090E0875F9D4F2981FC0120830FC0809187
:100E0000E501882F90E08B5E9D4F2981FC012083B6
:100E10008091180284608093180200008091E5019F
:100E20008F5F8093E5010F90CF91DF910895DF935D
:100E3000CF93CDB7DEB78091E101823551F4809137
:100E4000E2018D3431F48091E301833411F481E0C7
:0E0E500001C080E0CF91DF910895F894FFCFAC
:100E5E00524D43204D6573736167650A55544320A7
:100E6E0054696D653A2053746174757320203A206D
:100E7E004C617469742E20203A204C6F6E67742E6C
:040E8E0020203A20C6
:00000001FF
