:100000000C9434000C9446000C94D3000C944600DD
:100010000C9446000C9446000C9446000C94460048
:100020000C9446000C9440010C9446000C9446003D
:100030000C9446000C9446000C9446000C94460028
:100040000C9422020C9446000C94BF030C941F04E1
:100050000C9446000C9446000C9446000C94460008
:100060000C9446000C94460011241FBECFEFD8E03C
:10007000DEBFCDBF12E0A0E0B1E001C01D92A3330E
:10008000B107E1F70E9448000C94FC040C940000B6
:10009000DF93CF930F92CDB7DEB70E945E000000D2
:1000A0000E94B8008823E1F70E94AF008983CE0147
:1000B000019661E00E94F2030000F2CFDF93CF933C
:1000C000CDB7DEB71092320280E10E947F030E941A
:1000D0006D007894CF91DF910895DF93CF93CDB7E2
:1000E000DEB78BE290E02BE230E0F9012081246062
:1000F000FC0120838BE290E02BE230E0F9012081CB
:100100002860FC0120838AE290E02AE230E0F901D5
:1001100020812460FC0120838AE290E02AE230E022
:10012000F9012081277FFC01208389E690E029E600
:1001300030E0F90120812860FC0120838DE390E00C
:100140002DE330E0F90120812260FC0120838091C1
:1001500032028D7F80933202CF91DF910895DF9339
:10016000CF93CDB7DEB70E941103CF91DF910895F1
:10017000DF93CF93CDB7DEB780918501882311F44B
:1001800081E001C080E0CF91DF910895DF93CF93AC
:100190000F92CDB7DEB7898389810E9434030F9017
:1001A000CF91DF9108951F920F920FB60F921124F5
:1001B0002F933F934F935F936F937F938F939F936F
:1001C000AF93BF93EF93FF93DF93CF93CDB7DEB79A
:1001D00080910001882371F481E0809300018DE318
:1001E00090E02DE330E0F90120812D7FFC01208398
:1001F0000E940D01CF91DF91FF91EF91BF91AF91DF
:100200009F918F917F916F915F914F913F912F912E
:100210000F900FBE0F901F901895DF93CF93CDB71F
:10022000DEB782EB90E02BECFC01208381EB90E0C9
:1002300023E0FC01208380E790E020E730E0F90133
:1002400020812160FC012083CF91DF910895DF930D
:10025000CF93CDB7DEB781EB90E021EB30E0F90131
:100260002081287FFC01208380E790E020E730E0B8
:10027000F90120812E7FFC012083CF91DF91089529
:100280001F920F920FB60F9211242F933F934F930B
:100290005F936F937F938F939F93AF93BF93EF93EE
:1002A000FF93DF93CF930F92CDB7DEB782EB90E051
:1002B00027E9FC01208380910001882F90E08130A4
:1002C000910579F08230910524F4009709F464C017
:1002D0005FC08230910569F08330910509F441C017
:1002E00057C082E080930001109201011092020138
:1002F00056C0198289E290E0FC018081882F90E04D
:1003000088709070009719F081E0898301C019828C
:100310008981882F90E020910101222F30E0022E68
:1003200002C0880F991F0A94E2F7982F809102016A
:10033000890F80930201809101018F5F80930101F9
:1003400080910101883051F583E080930001809114
:1003500002010E94EF028091320282608093320299
:100360001EC0109200010E9427018CE390E02CE354
:1003700030E0F90120812260FC0120838DE390E0D0
:100380002DE330E0F90120812260FC01208307C0C9
:1003900010920001000003C0000001C000000F9097
:1003A000CF91DF91FF91EF91BF91AF919F918F918D
:1003B0007F916F915F914F913F912F910F900FBE61
:1003C0000F901F901895DF93CF93CDB7DEB786E4DB
:1003D00090E02BECFC01208385E490E023E0FC011D
:1003E00020838EE690E02EE630E0F9012081216046
:1003F000FC012083CF91DF910895DF93CF93CDB798
:10040000DEB785E490E025E430E0F9012081287F23
:10041000FC0120838EE690E02EE630E0F901208199
:100420002E7FFC012083CF91DF910895DF93CF933E
:10043000CDB7DEB785E490E0FC0180818170CF917B
:10044000DF9108951F920F920FB60F9211242F93F0
:100450003F934F935F936F937F938F939F93AF934C
:10046000BF93EF93FF93DF93CF930F92CDB7DEB798
:1004700086E490E02BECFC01208380918601882F9C
:1004800090E08130910591F0823091051CF4009745
:1004900049F07AC082309105E1F08330910509F48A
:1004A0005DC072C081E08093860171C082E080935C
:1004B0008601109287010E945C03809388018BE281
:1004C00090E02BE230E0F90120812B7FFC012083BA
:1004D0005EC080910101883040F083E0809300018C
:1004E000809102010E94EF0252C080918801282F62
:1004F00030E080910101482F50E081E090E0042E2F
:1005000002C0880F991F0A94E2F782239323209157
:100510000101222F30E0022E02C0959587950A94A2
:10052000E2F789838981813051F48BE290E02BE2FC
:1005300030E0F90120812460FC01208309C08BE2B6
:1005400090E02BE230E0F90120812B7FFC01208339
:10055000809187018F5F8093870119C08BE290E0C3
:100560002BE230E0F90120812460FC01208380919E
:100570000B02882329F4109200010E94FD0107C09C
:1005800081E08093000103C01092000100000F90F1
:10059000CF91DF91FF91EF91BF91AF919F918F919B
:1005A0007F916F915F914F913F912F910F900FBE6F
:1005B0000F901F901895DF93CF9300D0CDB7DEB783
:1005C0008A838A818F5F89838981803811F480E0F2
:1005D00001C089810F900F90CF91DF910895DF9333
:1005E000CF930F92CDB7DEB78983809185018823A1
:1005F000A4F080918301882F90E08D5F9E4F298128
:10060000FC012083809185018F5F8093850180911B
:1006100083010E94DB02809383010F90CF91DF91D1
:100620000895DF93CF930F92CDB7DEB719828091F3
:1006300085018823A1F080918401882F90E08D5F4F
:100640009E4FFC0180818983809184010E94DB029E
:1006500080938401809185018150809385018981F7
:100660000F90CF91DF910895DF93CF930F92CDB785
:10067000DEB7898380910B028032D0F48091090229
:10068000882F90E087579E4F2981FC01208380911D
:100690000B028F5F80930B02809109020E94DB02A4
:1006A000809309020E941602882311F40E94E3013C
:1006B0000F90CF91DF910895DF93CF930F92CDB735
:1006C000DEB7198280910B028823A1F080910A0283
:1006D000882F90E087579E4FFC018081898380910D
:1006E0000A020E94DB0280930A0280910B02815071
:1006F00080930B0289810F90CF91DF910895DF9352
:10070000CF930F92CDB7DEB7898380EC90E020ECD9
:1007100030E0F90120812260FC01208381EC90E02F
:1007200021EC30E0F90120812869FC01208384EC70
:1007300090E02981222F30E0FC01318320838091D9
:1007400032028E7F809332020F90CF91DF91089515
:10075000DF93CF93CDB7DEB70E949404CF91DF91A2
:100760000895DF93CF93CDB7DEB780911E02882323
:1007700011F481E001C080E0CF91DF9108951F92D4
:100780000F920FB60F9211242F933F934F935F93C5
:100790006F937F938F939F93AF93BF93EF93FF9349
:1007A000DF93CF93CDB7DEB786EC90E0FC0180817C
:1007B0000E94720480913202816080933202CF9154
:1007C000DF91FF91EF91BF91AF919F918F917F91B9
:1007D0006F915F914F913F912F910F900FBE0F90AE
:1007E0001F901895DF93CF9300D000D0CDB7DEB720
:1007F0009B838A836C8319820EC08981882F90E045
:100800002A813B81820F931FFC0180810E94B704E3
:1008100089818F5F898399818C81981770F381EC2E
:1008200090E021EC30E0F90120812062FC0120837E
:100830000F900F900F900F90CF91DF9108951F921E
:100840000F920FB60F9211242F933F934F935F9304
:100850006F937F938F939F93AF93BF93EF93FF9388
:10086000DF93CF930F92CDB7DEB70E94D90489836F
:1008700086EC90E02981FC0120838091310288235D
:1008800049F481EC90E021EC30E0F90120812F7DEA
:10089000FC0120830F90CF91DF91FF91EF91BF91E9
:1008A000AF919F918F917F916F915F914F913F9108
:1008B0002F910F900FBE0F901F901895DF93CF933D
:1008C00000D0CDB7DEB78A838A818F5F8983898123
:1008D000803111F480E001C089810F900F90CF9199
:1008E000DF910895DF93CF930F92CDB7DEB7898361
:1008F00080911E028031A0F480911C02882F90E02C
:10090000845F9D4F2981FC01208380911E028F5FAF
:1009100080931E0280911C020E945E0480931C0240
:100920000F90CF91DF910895DF93CF930F92CDB7C2
:10093000DEB7198280911E028823A1F080911D02EA
:10094000882F90E0845F9D4FFC0180818983809196
:100950001D020E945E0480931D0280911E02815040
:1009600080931E0289810F90CF91DF910895DF93CC
:10097000CF930F92CDB7DEB7898380913102803457
:10098000A0F480912F02882F90E0815E9D4F2981F5
:10099000FC012083809131028F5F8093310280912E
:1009A0002F020E945E0480932F020F90CF91DF915F
:1009B0000895DF93CF930F92CDB7DEB71982809160
:1009C00031028823A1F080913002882F90E0815E6F
:1009D0009D4FFC0180818983809130020E945E04DA
:1009E000809330028091310281508093310289815D
:0C09F0000F90CF91DF910895F894FFCF95
:00000001FF
